:1014330054656D703A00443A005365742054656DE9
:1014430070204D6178002564002020202000536522
:10145300742054656D70204D696E0053657420448B
:1014630069737420416C6C00536574204469737410
:10147300204D6178005365742044697374204D696D
:0E1483006E005365742054696D6500202000D2
:10153300016B0001680002610000024D0000025FC0
:10154300001E025D000A025200000269000C0266DE
:1015530000050264000F014C00014A000163000111
:0E1563004B00015C00015100C10B024F000063
:101600001218461217EC12182E1217EC12172A1283
:1016100017EC12185A1217EC120FD21215BD120A3B
:10162000B5120D9A7F0A7E001217F00562E562700E
:10163000020561B488E2E561B413DDE4F561F562A9
:0216400080D652
:0417EC007F327E00CA
:1017F000D3EF9400EE940040147D6E7C00ED1D70DC
:0D180000011CED4C70F7EF1F70E61E80E339
:01180D0022B8
:100FD200E4FF1216818F6BEF70030211EF24FE60A3
:100FE2002014700302110B240260030211EF056842
:100FF200C3E5689409748094804003E4F56802189C
:101002002EE56814B4080040030211EF90101C751D
:10101200F003A4C58325F0C5837302103402104D7A
:101022000210720210890210A80210C70210D70221
:1010320010F1C3E5609463E55F648094804003022D
:1010420011EF0560E560705D055F22E56024FFFF3A
:10105200E55F34FFFEC3E55E9FEE6480F8E55D6404
:10106200809840030211EF055EE55E7002055D2285
:10107200C3E56594F4E564940140030211EF05654C
:10108200E5657002056422E56524FFFFE56434FF2F
:10109200FEC3E56A9FE5699E40030211EF056AE51A
:1010A2006A7002056922E56A24FFFFE56934FFFEE2
:1010B200C3E5679FE5669E40030211EF0567E5679A
:1010C2007002056622C3E54C9464748094805002D9
:1010D200054C0211C0054AAF4AEF3395E0FEC3EF5B
:1010E200943CEE648094804003E4F54A0211D605F4
:1010F20063AF63EF3395E0FEC3EF943CEE648094FC
:10110200804003E4F5630211ECE56814B408004082
:10111200030211EF90112475F003A4C58325F0C5D5
:10112200837302113C0211600211690211840211DF
:101132009F0211B30211C40211DAE55E2401FFE439
:10114200355DFED3E5609FEE6480F8E55F648098CC
:1011520050030211EFE56015607002155F22E55E33
:10116200155E7002155D22E56A2401FFE43569FE11
:10117200D3E5659FE5649E4074E5651565700215CB
:101182006422E5672401FFE43566FED3E56A9FE544
:10119200699E4059E56A156A7053156922D3E5675D
:1011A2009400E56694004045E5671567703F156653
:1011B20022D3E54C9400748094804002154C854CF7
:1011C2004B22154AAF4AEF3395E0C36480948050B6
:1011D20003754A3B854A5C221563AF63EF3395E0A2
:0E11E200C364809480500375633B8563512283
:1015BD00AE61AF627C007D0A120577ED4C7033127F
:1015CD0014E58E4D8F4E7C007D0A1205CC1213AAA8
:1015DD008E528F53D3E5539565E55295644006E4DD
:1015ED00F552F55322C3E5659553F553E5649552D0
:0315FD00F5522282
:100AB500E568B409004003020D99900AC6F8282894
:100AC50073020AE1020B31020B86020BDB020C16E4
:100AD500020C51020C93020CEC020D417BFF7A14BF
:100AE5007933E4FD7F011216BFAB4EAA4D7D057F1C
:100AF500011211F07BFF7A147939E4FD7F02121699
:100B0500BFAB53AA527D027F02121579E54BFB7AE2
:100B150000AF5CEF3395E0F5268F27AF51EF3395A6
:100B2500E0F5288F297D087F020214917BFF7A1456
:100B3500793C7D027F011216BFAE61AF627C007DFC
:100B450014120577ED4C70247531FF753214753329
:100B550049855F34856035FB7A0079541206A27B9E
:100B6500007A0079547D077F021216BFAE61AF622D
:100B75007C007D28120577ED4C6003020D99020C6F
:100B85008A7BFF7A1479517D027F011216BFAE610F
:100B9500AF627C007D14120577ED4C70247531FF32
:100BA500753214753349855D34855E35FB7A007978
:100BB500541206A27B007A0079547D077F02121633
:100BC500BFAE61AF627C007D28120577ED4C6003F6
:100BD500020D99020C8A7BFF7A14795E7D027F01F2
:100BE5001216BFAE61AF627C007D14120577ED4C25
:100BF500700BAB65AA647D077F02121290AE61AFE0
:100C0500627C007D28120577ED4C6003020D99800A
:100C1500747BFF7A14796B7D027F011216BFAE617A
:100C2500AF627C007D14120577ED4C700BAB6AAAA0
:100C3500697D077F02121290AE61AF627C007D284C
:100C4500120577ED4C6003020D9980397BFF7A140C
:100C550079787D027F011216BFAE61AF627C007D9F
:100C650014120577ED4C700BAB67AA667D077F0202
:100C7500121290AE61AF627C007D28120577ED4CB3
:100C85006003020D997BFF7A14794C020D3D7BFFC1
:100C95007A1479857D047F011216BFAE61AF627C3F
:100CA500007D14120577ED4C7020E54CFB7A00AF02
:100CB5004AEF3395E0F5268F27AF63EF3395E0F5DF
:100CC500288F297D047F02121491AE61AF627C00EA
:100CD5007D28120577ED4C6003020D997BFF7A1490
:100CE500798E7D04020D947BFF7A1479857D047FCE
:100CF500011216BFAE61AF627C007D14120577ED5F
:100D05004C7020E54CFB7A00AF4AEF3395E0F526B1
:100D15008F27AF63EF3395E0F5288F297D047F0298
:100D2500121491AE61AF627C007D28120577ED4CFF
:100D350070627BFF7A14798E7D0780537BFF7A146E
:100D450079857D047F011216BFAE61AF627C007D9F
:100D550014120577ED4C7020E54CFB7A00AF4AEF95
:100D65003395E0F5268F27AF63EF3395E0F5288FB0
:100D7500297D047F02121491AE61AF627C007D284B
:100D8500120577ED4C700D7BFF7A14798E7D0A7F05
:050D9500021216BF224E
:100D9A00E5686003020FC5AE5FAF60FC7D0A12050D
:100DAA0065D3E54E9FEE6480F8E54D648098400671
:100DBA00C292D2918024AE5DAF5E7C007D0A12059C
:100DCA0065C3E54E9FEE6480F8E54D648098500651
:100DDA00D292C2918004D292D291C3E5539567E52B
:100DEA005295665015C293D294AE61AF627C007D73
:100DFA0014120577ED4C702E801ED3E553956AE5E3
:100E0A005295694019D293C294AE61AF627C007D5B
:100E1A0014120577ED4C700EB2A0B2A18008D293DD
:100E2A00D294D2A0D2A1AF4B7E00EF7012AD5CED8E
:100E3A003395E04D7009AD51ED3395E04D6002D226
:100E4A0009300A47C20AAD51ED3395E0FCD3ED945F
:100E5A0000EC6480948040041551802FAD5CED3322
:100E6A0095E0FCD3ED9400EC648094804004155C1A
:100E7A008010D3EF9400EE64809480400A154B757D
:100E8A005C3B75513B8004C209D20B200B03020F55
:100E9A00D1D2A0D2A1D293C294AE4FAF507C007DE2
:100EAA000A120577ED4C7048AE4DAF4EFC7D0A1222
:100EBA0005CC1213AA8E528F53D3E5539565E5528A
:100ECA0095644007E4F552F553800DC3E5659553E3
:100EDA00F553E5649552F5527BFF7A147939E4FDAE
:100EEA007F021216BFAB53AA527D027F02121579F6
:100EFA007F0A7E001217F00550E5507002054FD3A5
:100F0A009488E54F94134005E4F54FF550C3E55333
:100F1A009567E55295664003020E9FE4F54FF5503A
:100F2A00C293D294AE4FAF507C007D0A120577ED82
:100F3A004C7048AE4DAF4EFC7D0A1205CC1213AA76
:100F4A008E528F53D3E5539565E55295644007E475
:100F5A00F552F553800DC3E5659553F553E5649550
:100F6A0052F5527BFF7A147939E4FD7F021216BFDB
:100F7A00AB53AA527D027F021215797F0A7E0012B4
:100F8A0017F00550E5507002054FD39488E54F9449
:100F9A00134005E4F54FF550C3E553956AE55295BC
:100FAA00695003020F2AE4F54FF550D293D294C246
:100FBA000B854C4B854A5C85635122D292D291D2E1
:080FCA0093D294D2A0D2A1221F
:1017A1002020202020202020202020202020202038
:1017B10020202020202020200025642E2564002DBB
:0617C10025642E256400E2
:10186D007580FFC2A5D2A6C2A7D2A72087F5C2A7B1
:01187D002248
:101642007C007D64AF03AE021205777C007D0A1236
:101652000577ED2430FF1216717D0A7C00AF03AED0
:0F166200021205777C007D0A120577ED2430FF18
:1016710012186DC2A78F80D2A5C2A6D2A7C2A72277
:10187E0012186DC2A78F80C2A5C2A6D2A7C2A72278
:1016BF008B2E8A2F8930EF64017005ED2480800313
:1016CF00ED24C0FF12187EAB2EAA2FA93012050DE4
:1016DF0060130530E5307002052F14F912050DFF68
:0616EF0012167180E222D8
:10182E007BFF7A1779A1E4FD7F011216BF7BFF7A49
:08183E001779A17F020216BF19
:101846007F3812187E7F0C12187E7F0612187E7F54
:041856000102187EF5
:10129000EF64017005ED24808003ED24C0FF121877
:1012A0007EC3EB94E8EA9403401C7C037DE81216AD
:1012B0005F1216427C007D0AAF03AE02120577ED85
:1012C0002430FF02131AC3EB9464EA940040121214
:1012D00016427C007D0AAF03AE0212166A7F2080A0
:1012E00039C3EB940AEA940040217C007D0AAF03E5
:1012F000AE02120577EF2430FF1216717C007D0AD2
:10130000AF03AE0212166A7F20800CEB2430FF126E
:0E13100016717F2012167112167112167122BC
:0811F0008F228D238A248B2538
:1011F800EF64017006E52324808004E52324C0FF02
:1012080012187EC3E5246480948040227531FF75EE
:1012180032177533BAAE24AF257C007D0A1205CC8F
:101228008E348F35AE24AF257C007D0A802B753136
:10123800FF7532177533C0AE24AF257CFF7DFF12D2
:101248000565AA06AB077C007D0A1205CC8E348F93
:10125800357C007D0AAF03AE021205CC8C368D3783
:101268007B007A0079261206A27B007A007926ADE7
:1012780023AF221216BF7FDF1216717F4312167139
:081288007F201216710216719D
:10157900EF64017005ED24808003ED24C0FF12188B
:101589007ED3EB9463EA940040057D6412165DD323
:10159900EB9409EA9400400312165BAE02AF031202
:1015A90016667F631216717F6D1216717F201216EF
:0415B9007102167134
:10149100EF64017005ED24808003ED24C0FF121874
:1014A1007E12165BAE02AF031216667F3A121671F8
:1014B100AE26AF277C007D0A121663AE26AF271237
:1014C10016667F3A121671AE28AF297C007D0A128A
:1014D1001663AE28AF297C007D0A120577ED243012
:0414E100FF0216717F
:03157100010A016B
:10168100EF6003750A01E50A602530A20630A30365
:1016910020A41C7F0A7E001217F0E4F50A20A203A1
:1016A1007F012220A3037F022220A40F7F03223087
:0D16B100A20930A30630A403750A017F00D2
:0116BE002209
:0B188E00EF1FAC0670011E4C70F6222C
:10172A00D2907F017E0012188EC2907F507E0012E6
:10173A00188ED2907F0A7E0012188EA29092007F95
:08174A00147E0012188ED290EB
:011752002274
:0217C700AD076C
:1017C900E4FBEBC39408748094805016C290ED1327
:1017D90092907F057E0012188ED290EDC313FD0BF7
:0217E90080E09E
:0117EB0022DB
:10175300E4FBEBC39408748094805018C290EDC3EB
:1017630013FDD2903090034305807F057E0012184D
:061773008E0B80DEAF05C5
:01177900224D
:1014E500E4FFFEC2AF12172A7FCC1217C77F441242
:1014F50017C77F327E0012188E12172A7FCC12175B
:10150500C77FBE1217C7121753AA07121753D28CDB
:10151500D28EEFFEAD02EDFFAC06EC1202B1E4FB9C
:0D152500FA7920783F1201061202EAD2AFD7
:011532002296
:10180E00E4FDFCC3ED9FEC9E5015E4FBFA0BBB0010
:0F181E00010AEB64704A70F50DBD00010C80E407
:01182D002298
:1013AA00AD07AC06E41202B17B5A7A64791B783F26
:1013BA001201067B337AB379A578431200158F257B
:1013CA008E248D238C227B007A40791C7846120267
:1013DA000F8F258E248D238C22E4F5CDF5CCD2B641
:1013EA007F01FE12180EC2B630B7FDD2CA20B7FD71
:1013FA00C2CAAFCDEFFEADCC7C00E42DFDEC3EFCC5
:10140A00E41202B1AB25AA24A923A822120106E4F8
:10141A00FBFAF9784012020F1202EAD3EF94F4EEC3
:08142A00940140047E017FF4EF
:011432002297
:04157400C109C10ADE
:10185A005389F0438901758CDB758AFFD28CD2A932
:03186A00D2AF22D8
:03000B000216F5E5
:0416F500C0E0C0D0C1
:1016F900758CDB758AFF30091B0509E50970020540
:1017090008C39464E508940040127508007509003F
:0C171900D20A8008750800750900C20A99
:05172500D0D0D0E0323D
:10000E00020356E86480F8E933E83360110460F0C7
:10001E00ED33EC337009E8FCE9FDEAFEEBFF220458
:10002E0060DED3EB9FEA9EE99DE8C2E78CF0C2F753
:10003E0095F0400CE8CCF8E9CDF9EACEFAEBCFFB1F
:10004E0012032185D0F05804700320D5B3E8047054
:10005E00075002B2D502036092D5EC0460F7E4CCEF
:10006E00C0E0C398F8603B94186008400DD0E0FBE8
:10007E00020338E4FBFAC9FC8028E830E406E4C940
:10008E00FBE4CAFCE830E305E4C9CACBFCE854073C
:10009E006010F8C3E913F9EA13FAEB13FBEC13FC47
:1000AE00D8F130F52FC3E49CFCEF9BFFEE9AFEEDEA
:1000BE0099FDD0E0FBEF4E4D4C701222DB03020394
:1000CE005DEC2CFCEF33FFEE33FEED33FDED30E750
:1000DE00EB020338EF2BFFEE3AFEED39FDD0E0FBDD
:1000EE0050130BBB0003020360ED13FDEE13FEEF86
:0800FE0013FFEC13FC020338B0
:10010600EC4D6011E8497017ED33EC3304600DE4F3
:10011600FCFFFEFD22E933E8330470F802035612B1
:10012600032158046009E4CC2481500628500902B2
:10013600036028400302035DC0E0EB4A7044B980C7
:1001460006D0E0FB02034CEF4E701CBD8008EBFFAF
:10015600EAFEE9FD80EBE98DF0A4FEE5F00201EF91
:10016600E9CDF9EAFEEBFFEF89F0A4FCE5F0CE89D4
:10017600F0A42EFFE435F0CD89F0A42DFEE435F091
:100186008067EF4E7005BD80D780C3EF8BF0A4ACBF
:10019600F0EE8BF0A42CFCE435F0F8EF8AF0A42CFA
:1001A600E5F038FCE433CB8DF0A42CFCE5F03BF80D
:1001B600EE8AF0A42CFCE5F038F8E433CF89F0A4FD
:1001C6002CFCE5F038CF3400CE89F0A42FFFE5F003
:1001D6003EFEE433C98DF0A42EFEE5F039CD8AF05B
:1001E600A42FFFE5F03EFEE43DFD33D0E0FB5007D3
:1001F6000BBB000F020360EC2CFCEF33FFEE33FE6B
:06020600ED33FD02033898
:10020C00020360EC5D046005E859047003020356B8
:10021C00120321580460F6EC4860F2EC7004FDFE09
:10022C00FF22C860DB2481C85009C39860025006C5
:10023C0002035D9850CAF582E9294B4A7005AB82DE
:10024C0002034C75F0007C1A7880C3EF9BEE9AED9C
:10025C0099400DC3EF9BFFEE9AFEED99FDE842F03D
:10026C00DC23ACF0D0E0FFD0E0FED0E0FDAB822090
:10027C00E7101BEB60BAEC2CFCEF33FFEE33FEED1A
:10028C0033FD020338E803F830E705C0F075F000E1
:10029C00EF2FFFEE33FEED33FD40B830E7C280AAFE
:1002AC0075F020800E75F010800575F0087D007ECD
:1002BC00007F003392D530D503120602EC33401088
:1002CC00EF33FFEE33FEED33FDEC33FCD5F0ED22D6
:0E02DC00E5F0247EA2D513CC92E7CDCEFF2212
:1002EA00EDD2E7CD33EC3392D524814006E4FFFE0C
:1002FA00FDFC22FCE4CFCECDCC24E0501174FF806B
:10030A00EDC3CC13CCCD13CDCE13CECF13CF047007
:07031A00F030D5DE020602FF
:10064600E5452431F8E6054522782E300702783153
:10065600E475F00112061002050D2000EB7F2ED284
:10066600008018EF540F2490D43440D4FF30040B8C
:10067600EF24BFB41A0050032461FFE5466002155B
:10068600460549E5497002054830070D782EE475A0
:10069600F001120610EF02055302177A7403D2070F
:1006A6008003E4C207F5458B2E8A2F8930E4F54690
:1006B600F548F549E54660077F2012068180F57505
:1006C60047FFC201C200C202C203C205C206C20877
:1006D60012064FFF700D3007057F00120692AF49D4
:1006E600AE4822B4255FC2D5C20412064FFF24D0FD
:1006F600B40A00501A75F00A784630D50508B6FFD8
:100706000106C6A426F620D5047002D20380D92499
:10071600CFB41A00EF5004C2E5D20402097FD20119
:1007260080C6D20080C0D20280BCD2D580BAD205A3
:1007360080B47F201206812002077401B54600406E
:10074600F1120646FF1206810206BAD208D20680C8
:1007560095120646FB120646FA120646F94A4B70F1
:100766000679767A0A7BFF20022EE546602A7E000D
:100776008E8275830012052660060EEE654770F0C0
:10078600C2D5EBC0E0EAC0E0E9C0E0EE1209DFD076
:10079600E0F9D0E0FAD0E0FB12050DFF60AAEBC04D
:1007A600E0EAC0E0E9C0E0120681D0E02401F9D019
:1007B600E03400FAD0E0FBE5470460DCD547D98099
:1007C60087D20280A21209C260F7E54770010412BF
:1007D600036BA947600DE547600914F547120A69DE
:1007E600EF60F3EA30E702F404C3995077EAF425A0
:1007F600470430E701E404F547800D1209C260C1E1
:10080600EA0547254712036BEA7844F630E701E428
:10081600254704D54704200501141209DFE4C0E08A
:10082600120A697844E6601320E70714F61206698F
:10083600802204F6D0E014C0E07F00120669E54786
:1008460060071206601547800B300503120660D05C
:10085600E00206BAD0E00480C51209C260A0E547EE
:100866000412036B7844EAF6E547200502600104AA
:0508760024041209DF5B
:10087B0074FF04C0E0120A69120669E547200502FD
:10088B006003120660D0E0B547E87F451206737827
:10089B0044E67F2B30E7047F2DF404C0E012068181
:1008AB00D0E075F00A84C0F012066AD0E012066A36
:1008BB000206BA791080027908C206C2088008D2F3
:1008CB00D5790A8004790AC2D5E547047002F54749
:1008DB00E4FAFDFEFF120646FC7B0820011312060C
:1008EB0046FD7B1030000A120646FE120646FF7BC1
:1008FB0020EC3382D592D55013C3E43000069FFF12
:10090B00E49EFEE42001039DFDE49CFCE4CBF8C2D5
:10091B0001EC700CCFCECDCCE824F8F870F3801737
:10092B00C3EF33FFEE33FEED33FDEC33FCEB33FB68
:10093B00994002FB0FD8E9EB300105F8D0E0C44831
:10094B00B201C0E00AEC4D4E4F78207B0070C2EA3A
:10095B00B5470040BCC0E01209E1D0F0D0E0200167
:10096B0004C4C0E0C4B201C0F012066AD0F0D5F0E6
:10097B00EB0206BA12062007575308BE5807284C3D
:10098B0007244208C24F08CA4408CA49073D430816
:10099B00D055080146085F4507CB470A9650072CF0
:1009AB002D07302E07532B0734230751200A7F2A9C
:1009BB0006EC480000074BE547B4FF0375470612EA
:1009CB000646FC120646FD120646FE120646FF7848
:1009DB003D02039A790AA2D5200314300509B910F8
:1009EB00020404B9080104A2D52006025001042018
:1009FB0002689202B546005034C0E07F20300319E4
:100A0B007F30A20272067205500F120A38C202C260
:100A1B0006C205C2087F30800F300503E9C0E01223
:100A2B000681300503D0E0F9D0E0B546CC30051790
:100A3B007F30B9100C1206817F583004077F788005
:100A4B0003B908031206813002057F2D0206817F50
:100A5B00202008F87F2B2006F322920280CF7F0004
:100A6B00B407005005243DF8E6FF22286E756C6C28
:100A7B002900D2011206463001F8C201784630D562
:100A8B000108F60206EC2D50434958120646240382
:100A9B00B405004001E4900A9193120672743A1265
:0A0AAB000672D2037546040208BE6D
:10032100E9D2E7C933E833F892D5EDD2E7CD33EC22
:0703310033FC5002B2D5229B
:10033800EC30E7100FBF000C0EBE00080DBD000426
:100348000BEB6014A2D5EB13FCED92E7FD2274FFD2
:10035800FCFDFEFF22E480F8A2D574FF13FC7D802B
:03036800E480EF3F
:10036B00F920E72824F950037907E4F42402FB1859
:10037B00DBFDE624FB5014E9600DE4F618E604F609
:0F038B00B40A08E4F6D9F57401F60A22C2D522A5
:10039A00ED33EC3392D5FA602AB4FF33EDC2E77B32
:1003AA00FF60067A0379BFE4227A0379C820D5046C
:1003BA007A0379C3224E614E002B494E46002D49DD
:1003CA004E4600E47A08F608DAFC7B00740722E855
:1003DA00C0E0ECC0E0EDC0E0EEC0E0EFC0E0EA75DE
:1003EA00F010A4CAABF075F04DA42BFBE435F0FC79
:1003FA00EA2410FAEB34C5FBEC34D9FCEDC2E7FF72
:10040A0075F056A4F42411C5F0F434C58FF0A42A6B
:10041A00E5F03BE43CF620E7141204CDD0E0FFD02F
:10042A00E0FED0E0FDD0E0FC12020F8014F40412CA
:10043A0004CDD0E0FFD0E0FED0E0FDD0E0FC120118
:10044A0006D0E0F8E6FAEDD2E7CD33EC332482FBAE
:10045A00E4C3CF33CFCE33CECD33CD33DBF37B07FB
:10046A0075F00A846004F6081B0AE5F0F6088FF0B6
:10047A00740AA4FFACF08EF0740AA42CFEACF050FF
:10048A00010C8DF0740AA42CFDE435F0F608DBDECD
:03049A00740722C2
:10049D003F8000004120000042C80000447A000067
:1004AD00461C400047C35000497424004B189680E9
:1004BD004CBEBC205A0E1BCA6753C21C749DC5AEE0
:1004CD00FB60065407601C23231204FBEB543860B9
:1004DD00091204E71204F6120106ECF8EDF9EEFA32
:1004ED00EFCB22EB1204F680F1543803241C900458
:1004FD009DFE93FC0EEE93FD0EEE930ECE93FF221A
:0300000002131ECA
:0C131E00787FE4F6D8FD75816B02136542
:10050D00BB010689828A83E0225002E722BBFE02EC
:09051D00E32289828A83E493221F
:10052600BB010CE58229F582E5833AF583E022508A
:1005360006E92582F8E622BBFE06E92582F8E222D4
:0D054600E58229F582E5833AF583E49322EE
:10055300BB010689828A83F0225002F722BBFE0187
:02056300F32281
:10056500EF8DF0A4A8F0CF8CF0A428CE8DF0A42EAA
:02057500FE2264
:10057700BC000BBE0029EF8DF084FFADF022E4CC68
:10058700F875F008EF2FFFEE33FEEC33FCEE9DEC31
:10059700984005FCEE9DFE0FD5F0E9E4CEFD22ED77
:1005A700F8F5F0EE8420D21CFEADF075F008EF2FC1
:1005B700FFED33FD4007985006D5F0F222C398FDB2
:0505C7000FD5F0EA224F
:1005CC00C2D5EC30E709B2D5E4C39DFDE49CFCEE4A
:1005DC0030E715B2D5E4C39FFFE49EFE120577C346
:1005EC00E49DFDE49CFC800312057730D507C3E441
:0605FC009FFFE49EFE22B9
:0E060200C3E49FFFE49EFEE49DFDE49CFC2209
:10061000FAE6FB0808E6F925F0F618E6CA3AF622EB
:10062000D083D082F8E4937012740193700DA3A369
:1006300093F8740193F5828883E47374029368607D
:06064000EFA3A3A380DF7D
:10177A00EFB40A07740D121785740A309811A899E4
:10178A00B8130CC2983098FDA899C298B811F630CF
:07179A0099FDC299F59922A7
:10132A00021600E493A3F8E493A34003F68001F2C3
:10133A0008DFF48029E493A3F85407240CC8C333C4
:10134A00C4540F4420C8834004F456800146F6DF93
:10135A00E4800B0102040810204080901533E47EDB
:10136A00019360BCA3FF543F30E509541FFEE49388
:10137A00A360010ECF54C025E060A840B8E493A34F
:10138A00FAE493A3F8E493A3C8C582C8CAC583CA7A
:10139A00F0A3C8C582C8CAC583CADFE9DEE780BE32
:011578000072
:00000001FF
